{
  "_format": "hh-sol-artifact-1",
  "contractName": "MindMintNft",
  "sourceName": "contracts/MindMintNft.sol",
  "abi": [
    {
      "inputs": [
        {
          "internalType": "address",
          "name": "erc20TokenAddress",
          "type": "address"
        },
        {
          "internalType": "string",
          "name": "baseUrl",
          "type": "string"
        }
      ],
      "stateMutability": "nonpayable",
      "type": "constructor"
    },
    {
      "anonymous": false,
      "inputs": [
        {
          "indexed": true,
          "internalType": "address",
          "name": "owner",
          "type": "address"
        },
        {
          "indexed": true,
          "internalType": "address",
          "name": "approved",
          "type": "address"
        },
        {
          "indexed": true,
          "internalType": "uint256",
          "name": "tokenId",
          "type": "uint256"
        }
      ],
      "name": "Approval",
      "type": "event"
    },
    {
      "anonymous": false,
      "inputs": [
        {
          "indexed": true,
          "internalType": "address",
          "name": "owner",
          "type": "address"
        },
        {
          "indexed": true,
          "internalType": "address",
          "name": "operator",
          "type": "address"
        },
        {
          "indexed": false,
          "internalType": "bool",
          "name": "approved",
          "type": "bool"
        }
      ],
      "name": "ApprovalForAll",
      "type": "event"
    },
    {
      "anonymous": false,
      "inputs": [
        {
          "indexed": true,
          "internalType": "address",
          "name": "from",
          "type": "address"
        },
        {
          "indexed": true,
          "internalType": "address",
          "name": "to",
          "type": "address"
        },
        {
          "indexed": true,
          "internalType": "uint256",
          "name": "tokenId",
          "type": "uint256"
        }
      ],
      "name": "Transfer",
      "type": "event"
    },
    {
      "inputs": [],
      "name": "CATEGORY_COUNT",
      "outputs": [
        {
          "internalType": "uint256",
          "name": "",
          "type": "uint256"
        }
      ],
      "stateMutability": "view",
      "type": "function"
    },
    {
      "inputs": [],
      "name": "MAX_PER_CATEGORY",
      "outputs": [
        {
          "internalType": "uint256",
          "name": "",
          "type": "uint256"
        }
      ],
      "stateMutability": "view",
      "type": "function"
    },
    {
      "inputs": [],
      "name": "MAX_SUPPLY",
      "outputs": [
        {
          "internalType": "uint256",
          "name": "",
          "type": "uint256"
        }
      ],
      "stateMutability": "view",
      "type": "function"
    },
    {
      "inputs": [
        {
          "internalType": "address",
          "name": "to",
          "type": "address"
        },
        {
          "internalType": "uint256",
          "name": "tokenId",
          "type": "uint256"
        }
      ],
      "name": "approve",
      "outputs": [],
      "stateMutability": "nonpayable",
      "type": "function"
    },
    {
      "inputs": [
        {
          "internalType": "address",
          "name": "owner",
          "type": "address"
        }
      ],
      "name": "balanceOf",
      "outputs": [
        {
          "internalType": "uint256",
          "name": "",
          "type": "uint256"
        }
      ],
      "stateMutability": "view",
      "type": "function"
    },
    {
      "inputs": [
        {
          "internalType": "uint256",
          "name": "etherAmount",
          "type": "uint256"
        }
      ],
      "name": "convertEtherToWei",
      "outputs": [
        {
          "internalType": "uint256",
          "name": "",
          "type": "uint256"
        }
      ],
      "stateMutability": "pure",
      "type": "function"
    },
    {
      "inputs": [
        {
          "internalType": "uint256",
          "name": "tokenId",
          "type": "uint256"
        }
      ],
      "name": "getApproved",
      "outputs": [
        {
          "internalType": "address",
          "name": "",
          "type": "address"
        }
      ],
      "stateMutability": "view",
      "type": "function"
    },
    {
      "inputs": [],
      "name": "getBaseUrl",
      "outputs": [
        {
          "internalType": "string",
          "name": "",
          "type": "string"
        }
      ],
      "stateMutability": "view",
      "type": "function"
    },
    {
      "inputs": [
        {
          "internalType": "uint256",
          "name": "category",
          "type": "uint256"
        }
      ],
      "name": "getCategoryMaxCount",
      "outputs": [
        {
          "internalType": "uint256",
          "name": "",
          "type": "uint256"
        }
      ],
      "stateMutability": "view",
      "type": "function"
    },
    {
      "inputs": [
        {
          "internalType": "uint256",
          "name": "category",
          "type": "uint256"
        }
      ],
      "name": "getCategoryPrice",
      "outputs": [
        {
          "internalType": "uint256",
          "name": "",
          "type": "uint256"
        }
      ],
      "stateMutability": "view",
      "type": "function"
    },
    {
      "inputs": [
        {
          "internalType": "uint256",
          "name": "index",
          "type": "uint256"
        }
      ],
      "name": "getFeeRecipient",
      "outputs": [
        {
          "internalType": "address",
          "name": "",
          "type": "address"
        },
        {
          "internalType": "uint256",
          "name": "",
          "type": "uint256"
        }
      ],
      "stateMutability": "view",
      "type": "function"
    },
    {
      "inputs": [
        {
          "internalType": "uint256",
          "name": "tokenId",
          "type": "uint256"
        }
      ],
      "name": "getTokenMetadata",
      "outputs": [
        {
          "internalType": "string",
          "name": "",
          "type": "string"
        }
      ],
      "stateMutability": "view",
      "type": "function"
    },
    {
      "inputs": [
        {
          "internalType": "address",
          "name": "owner",
          "type": "address"
        },
        {
          "internalType": "address",
          "name": "operator",
          "type": "address"
        }
      ],
      "name": "isApprovedForAll",
      "outputs": [
        {
          "internalType": "bool",
          "name": "",
          "type": "bool"
        }
      ],
      "stateMutability": "view",
      "type": "function"
    },
    {
      "inputs": [
        {
          "internalType": "uint256",
          "name": "category",
          "type": "uint256"
        },
        {
          "internalType": "uint256",
          "name": "tokenId",
          "type": "uint256"
        }
      ],
      "name": "mint",
      "outputs": [],
      "stateMutability": "nonpayable",
      "type": "function"
    },
    {
      "inputs": [],
      "name": "name",
      "outputs": [
        {
          "internalType": "string",
          "name": "",
          "type": "string"
        }
      ],
      "stateMutability": "view",
      "type": "function"
    },
    {
      "inputs": [
        {
          "internalType": "uint256",
          "name": "tokenId",
          "type": "uint256"
        }
      ],
      "name": "ownerOf",
      "outputs": [
        {
          "internalType": "address",
          "name": "",
          "type": "address"
        }
      ],
      "stateMutability": "view",
      "type": "function"
    },
    {
      "inputs": [
        {
          "internalType": "address",
          "name": "from",
          "type": "address"
        },
        {
          "internalType": "address",
          "name": "to",
          "type": "address"
        },
        {
          "internalType": "uint256",
          "name": "tokenId",
          "type": "uint256"
        }
      ],
      "name": "safeTransferFrom",
      "outputs": [],
      "stateMutability": "nonpayable",
      "type": "function"
    },
    {
      "inputs": [
        {
          "internalType": "address",
          "name": "from",
          "type": "address"
        },
        {
          "internalType": "address",
          "name": "to",
          "type": "address"
        },
        {
          "internalType": "uint256",
          "name": "tokenId",
          "type": "uint256"
        },
        {
          "internalType": "bytes",
          "name": "data",
          "type": "bytes"
        }
      ],
      "name": "safeTransferFrom",
      "outputs": [],
      "stateMutability": "nonpayable",
      "type": "function"
    },
    {
      "inputs": [
        {
          "internalType": "address",
          "name": "operator",
          "type": "address"
        },
        {
          "internalType": "bool",
          "name": "approved",
          "type": "bool"
        }
      ],
      "name": "setApprovalForAll",
      "outputs": [],
      "stateMutability": "nonpayable",
      "type": "function"
    },
    {
      "inputs": [
        {
          "internalType": "string",
          "name": "baseUrl",
          "type": "string"
        }
      ],
      "name": "setBaseUrl",
      "outputs": [],
      "stateMutability": "nonpayable",
      "type": "function"
    },
    {
      "inputs": [
        {
          "internalType": "uint256",
          "name": "category",
          "type": "uint256"
        },
        {
          "internalType": "uint256",
          "name": "maxCount",
          "type": "uint256"
        }
      ],
      "name": "setCategoryMaxCount",
      "outputs": [],
      "stateMutability": "nonpayable",
      "type": "function"
    },
    {
      "inputs": [
        {
          "internalType": "uint256",
          "name": "category",
          "type": "uint256"
        },
        {
          "internalType": "uint256",
          "name": "price",
          "type": "uint256"
        }
      ],
      "name": "setCategoryPrice",
      "outputs": [],
      "stateMutability": "nonpayable",
      "type": "function"
    },
    {
      "inputs": [
        {
          "internalType": "uint256",
          "name": "index",
          "type": "uint256"
        },
        {
          "internalType": "address",
          "name": "recipient",
          "type": "address"
        },
        {
          "internalType": "uint256",
          "name": "feePercent",
          "type": "uint256"
        }
      ],
      "name": "setFeeRecipient",
      "outputs": [],
      "stateMutability": "nonpayable",
      "type": "function"
    },
    {
      "inputs": [
        {
          "internalType": "bytes4",
          "name": "interfaceId",
          "type": "bytes4"
        }
      ],
      "name": "supportsInterface",
      "outputs": [
        {
          "internalType": "bool",
          "name": "",
          "type": "bool"
        }
      ],
      "stateMutability": "view",
      "type": "function"
    },
    {
      "inputs": [],
      "name": "symbol",
      "outputs": [
        {
          "internalType": "string",
          "name": "",
          "type": "string"
        }
      ],
      "stateMutability": "view",
      "type": "function"
    },
    {
      "inputs": [
        {
          "internalType": "uint256",
          "name": "tokenId",
          "type": "uint256"
        }
      ],
      "name": "tokenMetaDataUrl",
      "outputs": [
        {
          "internalType": "string",
          "name": "",
          "type": "string"
        }
      ],
      "stateMutability": "view",
      "type": "function"
    },
    {
      "inputs": [
        {
          "internalType": "uint256",
          "name": "tokenId",
          "type": "uint256"
        }
      ],
      "name": "tokenURI",
      "outputs": [
        {
          "internalType": "string",
          "name": "",
          "type": "string"
        }
      ],
      "stateMutability": "view",
      "type": "function"
    },
    {
      "inputs": [
        {
          "internalType": "address",
          "name": "from",
          "type": "address"
        },
        {
          "internalType": "address",
          "name": "to",
          "type": "address"
        },
        {
          "internalType": "uint256",
          "name": "tokenId",
          "type": "uint256"
        }
      ],
      "name": "transferFrom",
      "outputs": [],
      "stateMutability": "nonpayable",
      "type": "function"
    },
    {
      "inputs": [
        {
          "internalType": "address",
          "name": "to",
          "type": "address"
        },
        {
          "internalType": "uint256",
          "name": "amount",
          "type": "uint256"
        }
      ],
      "name": "withdrawERC20",
      "outputs": [],
      "stateMutability": "nonpayable",
      "type": "function"
    }
  ],
  "bytecode": "0x60806040523480156200001157600080fd5b506040516200459d3803806200459d833981810160405281019062000037919062000548565b6040518060400160405280600881526020017f4d696e644d696e740000000000000000000000000000000000000000000000008152506040518060400160405280600381526020017f4e465400000000000000000000000000000000000000000000000000000000008152508160009080519060200190620000bb9291906200040f565b508060019080519060200190620000d49291906200040f565b505050620000ea6101f4620003eb60201b60201c565b6007600080815260200190815260200160002081905550620001146103e8620003eb60201b60201c565b6007600060018152602001908152602001600020819055506200013f6107d0620003eb60201b60201c565b6007600060028152602001908152602001600020819055506200016a610bb8620003eb60201b60201c565b60076000600381526020019081526020016000208190555062000195610fa0620003eb60201b60201c565b600760006004815260200190815260200160002081905550620001c0611388620003eb60201b60201c565b600760006005815260200190815260200160002081905550611388600860008081526020019081526020016000208190555061138860086000600181526020019081526020016000208190555061138860086000600281526020019081526020016000208190555061138860086000600381526020019081526020016000208190555061138860086000600481526020019081526020016000208190555061138860086000600581526020019081526020016000208190555081600b60006101000a81548173ffffffffffffffffffffffffffffffffffffffff021916908373ffffffffffffffffffffffffffffffffffffffff16021790555033600c60006101000a81548173ffffffffffffffffffffffffffffffffffffffff021916908373ffffffffffffffffffffffffffffffffffffffff16021790555080600d9080519060200190620003139291906200040f565b5060005b600a811015620003e257600e6040518060400160405280600073ffffffffffffffffffffffffffffffffffffffff1681526020016000815250908060018154018082558091505060019003906000526020600020906002020160009091909190915060008201518160000160006101000a81548173ffffffffffffffffffffffffffffffffffffffff021916908373ffffffffffffffffffffffffffffffffffffffff1602179055506020820151816001015550508080620003d99062000742565b91505062000317565b50505062000848565b600080670de0b6b3a76400008362000404919062000601565b905080915050919050565b8280546200041d90620006d6565b90600052602060002090601f0160209004810192826200044157600085556200048d565b82601f106200045c57805160ff19168380011785556200048d565b828001600101855582156200048d579182015b828111156200048c5782518255916020019190600101906200046f565b5b5090506200049c9190620004a0565b5090565b5b80821115620004bb576000816000905550600101620004a1565b5090565b6000620004d6620004d084620005cb565b620005a2565b905082815260208101848484011115620004ef57600080fd5b620004fc848285620006a0565b509392505050565b60008151905062000515816200082e565b92915050565b600082601f8301126200052d57600080fd5b81516200053f848260208601620004bf565b91505092915050565b600080604083850312156200055c57600080fd5b60006200056c8582860162000504565b925050602083015167ffffffffffffffff8111156200058a57600080fd5b62000598858286016200051b565b9150509250929050565b6000620005ae620005c1565b9050620005bc82826200070c565b919050565b6000604051905090565b600067ffffffffffffffff821115620005e957620005e8620007ee565b5b620005f4826200081d565b9050602081019050919050565b60006200060e8262000696565b91506200061b8362000696565b9250817fffffffffffffffffffffffffffffffffffffffffffffffffffffffffffffffff048311821515161562000657576200065662000790565b5b828202905092915050565b60006200066f8262000676565b9050919050565b600073ffffffffffffffffffffffffffffffffffffffff82169050919050565b6000819050919050565b60005b83811015620006c0578082015181840152602081019050620006a3565b83811115620006d0576000848401525b50505050565b60006002820490506001821680620006ef57607f821691505b60208210811415620007065762000705620007bf565b5b50919050565b62000717826200081d565b810181811067ffffffffffffffff82111715620007395762000738620007ee565b5b80604052505050565b60006200074f8262000696565b91507fffffffffffffffffffffffffffffffffffffffffffffffffffffffffffffffff82141562000785576200078462000790565b5b600182019050919050565b7f4e487b7100000000000000000000000000000000000000000000000000000000600052601160045260246000fd5b7f4e487b7100000000000000000000000000000000000000000000000000000000600052602260045260246000fd5b7f4e487b7100000000000000000000000000000000000000000000000000000000600052604160045260246000fd5b6000601f19601f8301169050919050565b620008398162000662565b81146200084557600080fd5b50565b613d4580620008586000396000f3fe608060405234801561001057600080fd5b50600436106101cf5760003560e01c806370a0823111610104578063b88d4fde116100a2578063c87b56dd11610071578063c87b56dd1461053d578063d22e07f41461056d578063e985e9c51461059d578063fe7e2f73146105cd576101cf565b8063b88d4fde146104c9578063ba3fd190146104e5578063c7334bb314610503578063c7c3268b14610521576101cf565b806395d89b41116100de57806395d89b4114610443578063a1db978214610461578063a22cb4651461047d578063a7e91ab714610499576101cf565b806370a08231146103c657806370fb2621146103f6578063717efe4d14610427576101cf565b806323b872dd11610171578063603168011161014b578063603168011461031a5780636352211e1461034a57806366478c3c1461037a5780636ac11e3a14610396576101cf565b806323b872dd146102c457806332cb6b0c146102e057806342842e0e146102fe576101cf565b8063095ea7b3116101ad578063095ea7b3146102525780630ac961031461026e57806312af6a101461028c5780631b2ef1ca146102a8576101cf565b806301ffc9a7146101d457806306fdde0314610204578063081812fc14610222575b600080fd5b6101ee60048036038101906101e99190612aff565b6105fd565b6040516101fb9190613149565b60405180910390f35b61020c6106df565b6040516102199190613164565b60405180910390f35b61023c60048036038101906102379190612b92565b610771565b6040516102499190613082565b60405180910390f35b61026c60048036038101906102679190612a9a565b6107b7565b005b6102766108cf565b6040516102839190613164565b60405180910390f35b6102a660048036038101906102a19190612c0a565b610961565b005b6102c260048036038101906102bd9190612c0a565b6109c0565b005b6102de60048036038101906102d99190612994565b610e5c565b005b6102e8610ebc565b6040516102f59190613406565b60405180910390f35b61031860048036038101906103139190612994565b610ec2565b005b610334600480360381019061032f9190612b92565b610ee2565b6040516103419190613164565b60405180910390f35b610364600480360381019061035f9190612b92565b610fcf565b6040516103719190613082565b60405180910390f35b610394600480360381019061038f9190612bbb565b611056565b005b6103b060048036038101906103ab9190612b92565b61117c565b6040516103bd9190613164565b60405180910390f35b6103e060048036038101906103db919061292f565b6111f3565b6040516103ed9190613406565b60405180910390f35b610410600480360381019061040b9190612b92565b6112ab565b60405161041e929190613120565b60405180910390f35b610441600480360381019061043c9190612c0a565b6113b6565b005b61044b611415565b6040516104589190613164565b60405180910390f35b61047b60048036038101906104769190612a9a565b6114a7565b005b61049760048036038101906104929190612a5e565b61162e565b005b6104b360048036038101906104ae9190612b92565b611644565b6040516104c09190613406565b60405180910390f35b6104e360048036038101906104de91906129e3565b611666565b005b6104ed6116c8565b6040516104fa9190613406565b60405180910390f35b61050b6116ce565b6040516105189190613406565b60405180910390f35b61053b60048036038101906105369190612b51565b6116d3565b005b61055760048036038101906105529190612b92565b6116ed565b6040516105649190613164565b60405180910390f35b61058760048036038101906105829190612b92565b6117da565b6040516105949190613406565b60405180910390f35b6105b760048036038101906105b29190612958565b61183a565b6040516105c49190613149565b60405180910390f35b6105e760048036038101906105e29190612b92565b6118ce565b6040516105f49190613406565b60405180910390f35b60007f80ac58cd000000000000000000000000000000000000000000000000000000007bffffffffffffffffffffffffffffffffffffffffffffffffffffffff1916827bffffffffffffffffffffffffffffffffffffffffffffffffffffffff191614806106c857507f5b5e139f000000000000000000000000000000000000000000000000000000007bffffffffffffffffffffffffffffffffffffffffffffffffffffffff1916827bffffffffffffffffffffffffffffffffffffffffffffffffffffffff1916145b806106d857506106d78261192e565b5b9050919050565b6060600080546106ee906136cb565b80601f016020809104026020016040519081016040528092919081815260200182805461071a906136cb565b80156107675780601f1061073c57610100808354040283529160200191610767565b820191906000526020600020905b81548152906001019060200180831161074a57829003601f168201915b5050505050905090565b600061077c82611998565b6004600083815260200190815260200160002060009054906101000a900473ffffffffffffffffffffffffffffffffffffffff169050919050565b60006107c282610fcf565b90508073ffffffffffffffffffffffffffffffffffffffff168373ffffffffffffffffffffffffffffffffffffffff161415610833576040517f08c379a000000000000000000000000000000000000000000000000000000000815260040161082a90613386565b60405180910390fd5b8073ffffffffffffffffffffffffffffffffffffffff166108526119e3565b73ffffffffffffffffffffffffffffffffffffffff16148061088157506108808161087b6119e3565b61183a565b5b6108c0576040517f08c379a00000000000000000000000000000000000000000000000000000000081526004016108b7906133c6565b60405180910390fd5b6108ca83836119eb565b505050565b6060600d80546108de906136cb565b80601f016020809104026020016040519081016040528092919081815260200182805461090a906136cb565b80156109575780601f1061092c57610100808354040283529160200191610957565b820191906000526020600020905b81548152906001019060200180831161093a57829003601f168201915b5050505050905090565b600882106109a4576040517f08c379a000000000000000000000000000000000000000000000000000000000815260040161099b906133a6565b60405180910390fd5b8060076000848152602001908152602001600020819055505050565b60088210610a03576040517f08c379a00000000000000000000000000000000000000000000000000000000081526004016109fa906133a6565b60405180910390fd5b6008600083815260200190815260200160002054600960008481526020019081526020016000205410610a6b576040517f08c379a0000000000000000000000000000000000000000000000000000000008152600401610a62906133e6565b60405180910390fd5b619c40610a786006611aa4565b10610ab8576040517f08c379a0000000000000000000000000000000000000000000000000000000008152600401610aaf90613326565b60405180910390fd5b600060076000848152602001908152602001600020549050600b60009054906101000a900473ffffffffffffffffffffffffffffffffffffffff1673ffffffffffffffffffffffffffffffffffffffff166323b872dd3330846040518463ffffffff1660e01b8152600401610b2f9392919061309d565b602060405180830381600087803b158015610b4957600080fd5b505af1158015610b5d573d6000803e3d6000fd5b505050506040513d601f19601f82011682018060405250810190610b819190612ad6565b610bc0576040517f08c379a0000000000000000000000000000000000000000000000000000000008152600401610bb7906132e6565b60405180910390fd5b60005b600e80549050811015610de5576000600e8281548110610c0c577f4e487b7100000000000000000000000000000000000000000000000000000000600052603260045260246000fd5b9060005260206000209060020201600101541115610dd257600b60009054906101000a900473ffffffffffffffffffffffffffffffffffffffff1673ffffffffffffffffffffffffffffffffffffffff1663a9059cbb600e8381548110610c9c577f4e487b7100000000000000000000000000000000000000000000000000000000600052603260045260246000fd5b906000526020600020906002020160000160009054906101000a900473ffffffffffffffffffffffffffffffffffffffff16610d2385600e8681548110610d0c577f4e487b7100000000000000000000000000000000000000000000000000000000600052603260045260246000fd5b906000526020600020906002020160010154611ab2565b6040518363ffffffff1660e01b8152600401610d40929190613120565b602060405180830381600087803b158015610d5a57600080fd5b505af1158015610d6e573d6000803e3d6000fd5b505050506040513d601f19601f82011682018060405250810190610d929190612ad6565b610dd1576040517f08c379a0000000000000000000000000000000000000000000000000000000008152600401610dc8906132a6565b60405180910390fd5b5b8080610ddd9061372e565b915050610bc3565b50610df06006611ad4565b610e1c600c60009054906101000a900473ffffffffffffffffffffffffffffffffffffffff1683611aea565b600960008481526020019081526020016000206000815480929190610e409061372e565b9190505550610e5782610e528461117c565b611b08565b505050565b610e6d610e676119e3565b82611b7c565b610eac576040517f08c379a0000000000000000000000000000000000000000000000000000000008152600401610ea390613186565b60405180910390fd5b610eb7838383611c11565b505050565b619c4081565b610edd83838360405180602001604052806000815250611666565b505050565b6060610eed82611f0b565b610f2c576040517f08c379a0000000000000000000000000000000000000000000000000000000008152600401610f2390613366565b60405180910390fd5b600a60008381526020019081526020016000208054610f4a906136cb565b80601f0160208091040260200160405190810160405280929190818152602001828054610f76906136cb565b8015610fc35780601f10610f9857610100808354040283529160200191610fc3565b820191906000526020600020905b815481529060010190602001808311610fa657829003601f168201915b50505050509050919050565b600080610fdb83611f4c565b9050600073ffffffffffffffffffffffffffffffffffffffff168173ffffffffffffffffffffffffffffffffffffffff16141561104d576040517f08c379a000000000000000000000000000000000000000000000000000000000815260040161104490613346565b60405180910390fd5b80915050919050565b600e80549050831061109d576040517f08c379a000000000000000000000000000000000000000000000000000000000815260040161109490613206565b60405180910390fd5b81600e84815481106110d8577f4e487b7100000000000000000000000000000000000000000000000000000000600052603260045260246000fd5b906000526020600020906002020160000160006101000a81548173ffffffffffffffffffffffffffffffffffffffff021916908373ffffffffffffffffffffffffffffffffffffffff16021790555080600e8481548110611162577f4e487b7100000000000000000000000000000000000000000000000000000000600052603260045260246000fd5b906000526020600020906002020160010181905550505050565b606060006040518060400160405280600581526020017f2e6a736f6e000000000000000000000000000000000000000000000000000000815250905060006111c384611f89565b9050600d81836040516020016111db93929190613051565b60405160208183030381529060405292505050919050565b60008073ffffffffffffffffffffffffffffffffffffffff168273ffffffffffffffffffffffffffffffffffffffff161415611264576040517f08c379a000000000000000000000000000000000000000000000000000000000815260040161125b906132c6565b60405180910390fd5b600360008373ffffffffffffffffffffffffffffffffffffffff1673ffffffffffffffffffffffffffffffffffffffff168152602001908152602001600020549050919050565b600080600e8054905083106112f5576040517f08c379a00000000000000000000000000000000000000000000000000000000081526004016112ec90613206565b60405180910390fd5b600e838154811061132f577f4e487b7100000000000000000000000000000000000000000000000000000000600052603260045260246000fd5b906000526020600020906002020160000160009054906101000a900473ffffffffffffffffffffffffffffffffffffffff16600e848154811061139b577f4e487b7100000000000000000000000000000000000000000000000000000000600052603260045260246000fd5b90600052602060002090600202016001015491509150915091565b600882106113f9576040517f08c379a00000000000000000000000000000000000000000000000000000000081526004016113f0906133a6565b60405180910390fd5b8060086000848152602001908152602001600020819055505050565b606060018054611424906136cb565b80601f0160208091040260200160405190810160405280929190818152602001828054611450906136cb565b801561149d5780601f106114725761010080835404028352916020019161149d565b820191906000526020600020905b81548152906001019060200180831161148057829003601f168201915b5050505050905090565b600c60009054906101000a900473ffffffffffffffffffffffffffffffffffffffff1673ffffffffffffffffffffffffffffffffffffffff163373ffffffffffffffffffffffffffffffffffffffff1614611537576040517f08c379a000000000000000000000000000000000000000000000000000000000815260040161152e90613286565b60405180910390fd5b6000811161157a576040517f08c379a000000000000000000000000000000000000000000000000000000000815260040161157190613226565b60405180910390fd5b600b60009054906101000a900473ffffffffffffffffffffffffffffffffffffffff1673ffffffffffffffffffffffffffffffffffffffff1663a9059cbb83836040518363ffffffff1660e01b81526004016115d7929190613120565b602060405180830381600087803b1580156115f157600080fd5b505af1158015611605573d6000803e3d6000fd5b505050506040513d601f19601f820116820180604052508101906116299190612ad6565b505050565b6116406116396119e3565b8383612136565b5050565b600080670de0b6b3a76400008361165b9190613587565b905080915050919050565b6116776116716119e3565b83611b7c565b6116b6576040517f08c379a00000000000000000000000000000000000000000000000000000000081526004016116ad90613186565b60405180910390fd5b6116c2848484846122a3565b50505050565b61138881565b600881565b80600d90805190602001906116e992919061273e565b5050565b60606116f882611f0b565b611737576040517f08c379a000000000000000000000000000000000000000000000000000000000815260040161172e90613366565b60405180910390fd5b600a60008381526020019081526020016000208054611755906136cb565b80601f0160208091040260200160405190810160405280929190818152602001828054611781906136cb565b80156117ce5780601f106117a3576101008083540402835291602001916117ce565b820191906000526020600020905b8154815290600101906020018083116117b157829003601f168201915b50505050509050919050565b60006008821061181f576040517f08c379a0000000000000000000000000000000000000000000000000000000008152600401611816906133a6565b60405180910390fd5b60076000838152602001908152602001600020549050919050565b6000600560008473ffffffffffffffffffffffffffffffffffffffff1673ffffffffffffffffffffffffffffffffffffffff16815260200190815260200160002060008373ffffffffffffffffffffffffffffffffffffffff1673ffffffffffffffffffffffffffffffffffffffff16815260200190815260200160002060009054906101000a900460ff16905092915050565b600060088210611913576040517f08c379a000000000000000000000000000000000000000000000000000000000815260040161190a906133a6565b60405180910390fd5b60086000838152602001908152602001600020549050919050565b60007f01ffc9a7000000000000000000000000000000000000000000000000000000007bffffffffffffffffffffffffffffffffffffffffffffffffffffffff1916827bffffffffffffffffffffffffffffffffffffffffffffffffffffffff1916149050919050565b6119a181611f0b565b6119e0576040517f08c379a00000000000000000000000000000000000000000000000000000000081526004016119d790613346565b60405180910390fd5b50565b600033905090565b816004600083815260200190815260200160002060006101000a81548173ffffffffffffffffffffffffffffffffffffffff021916908373ffffffffffffffffffffffffffffffffffffffff160217905550808273ffffffffffffffffffffffffffffffffffffffff16611a5e83610fcf565b73ffffffffffffffffffffffffffffffffffffffff167f8c5be1e5ebec7d5bd14f71427d1e84f3dd0314c0f7b2291e5b200ac8c7c3b92560405160405180910390a45050565b600081600001549050919050565b600060648284611ac29190613587565b611acc9190613556565b905092915050565b6001816000016000828254019250508190555050565b611b048282604051806020016040528060008152506122ff565b5050565b611b1182611f0b565b611b50576040517f08c379a0000000000000000000000000000000000000000000000000000000008152600401611b4790613366565b60405180910390fd5b80600a60008481526020019081526020016000209080519060200190611b7792919061273e565b505050565b600080611b8883610fcf565b90508073ffffffffffffffffffffffffffffffffffffffff168473ffffffffffffffffffffffffffffffffffffffff161480611bca5750611bc9818561183a565b5b80611c0857508373ffffffffffffffffffffffffffffffffffffffff16611bf084610771565b73ffffffffffffffffffffffffffffffffffffffff16145b91505092915050565b8273ffffffffffffffffffffffffffffffffffffffff16611c3182610fcf565b73ffffffffffffffffffffffffffffffffffffffff1614611c87576040517f08c379a0000000000000000000000000000000000000000000000000000000008152600401611c7e906131c6565b60405180910390fd5b600073ffffffffffffffffffffffffffffffffffffffff168273ffffffffffffffffffffffffffffffffffffffff161415611cf7576040517f08c379a0000000000000000000000000000000000000000000000000000000008152600401611cee90613246565b60405180910390fd5b611d04838383600161235a565b8273ffffffffffffffffffffffffffffffffffffffff16611d2482610fcf565b73ffffffffffffffffffffffffffffffffffffffff1614611d7a576040517f08c379a0000000000000000000000000000000000000000000000000000000008152600401611d71906131c6565b60405180910390fd5b6004600082815260200190815260200160002060006101000a81549073ffffffffffffffffffffffffffffffffffffffff02191690556001600360008573ffffffffffffffffffffffffffffffffffffffff1673ffffffffffffffffffffffffffffffffffffffff168152602001908152602001600020600082825403925050819055506001600360008473ffffffffffffffffffffffffffffffffffffffff1673ffffffffffffffffffffffffffffffffffffffff16815260200190815260200160002060008282540192505081905550816002600083815260200190815260200160002060006101000a81548173ffffffffffffffffffffffffffffffffffffffff021916908373ffffffffffffffffffffffffffffffffffffffff160217905550808273ffffffffffffffffffffffffffffffffffffffff168473ffffffffffffffffffffffffffffffffffffffff167fddf252ad1be2c89b69c2b068fc378daa952ba7f163c4a11628f55a4df523b3ef60405160405180910390a4611f068383836001612360565b505050565b60008073ffffffffffffffffffffffffffffffffffffffff16611f2d83611f4c565b73ffffffffffffffffffffffffffffffffffffffff1614159050919050565b60006002600083815260200190815260200160002060009054906101000a900473ffffffffffffffffffffffffffffffffffffffff169050919050565b60606000821415611fd1576040518060400160405280600181526020017f30000000000000000000000000000000000000000000000000000000000000008152509050612131565b600082905060005b60008214612003578080611fec9061372e565b915050600a82611ffc9190613556565b9150611fd9565b60008167ffffffffffffffff811115612045577f4e487b7100000000000000000000000000000000000000000000000000000000600052604160045260246000fd5b6040519080825280601f01601f1916602001820160405280156120775781602001600182028036833780820191505090505b5090505b6000851461212a5760018261209091906135e1565b9150600a8561209f9190613777565b60306120ab9190613500565b60f81b8183815181106120e7577f4e487b7100000000000000000000000000000000000000000000000000000000600052603260045260246000fd5b60200101907effffffffffffffffffffffffffffffffffffffffffffffffffffffffffffff1916908160001a905350600a856121239190613556565b945061207b565b8093505050505b919050565b8173ffffffffffffffffffffffffffffffffffffffff168373ffffffffffffffffffffffffffffffffffffffff1614156121a5576040517f08c379a000000000000000000000000000000000000000000000000000000000815260040161219c90613266565b60405180910390fd5b80600560008573ffffffffffffffffffffffffffffffffffffffff1673ffffffffffffffffffffffffffffffffffffffff16815260200190815260200160002060008473ffffffffffffffffffffffffffffffffffffffff1673ffffffffffffffffffffffffffffffffffffffff16815260200190815260200160002060006101000a81548160ff0219169083151502179055508173ffffffffffffffffffffffffffffffffffffffff168373ffffffffffffffffffffffffffffffffffffffff167f17307eab39ab6107e8899845ad3d59bd9653f200f220920489ca2b5937696c31836040516122969190613149565b60405180910390a3505050565b6122ae848484611c11565b6122ba84848484612366565b6122f9576040517f08c379a00000000000000000000000000000000000000000000000000000000081526004016122f0906131a6565b60405180910390fd5b50505050565b61230983836124fd565b6123166000848484612366565b612355576040517f08c379a000000000000000000000000000000000000000000000000000000000815260040161234c906131a6565b60405180910390fd5b505050565b50505050565b50505050565b60006123878473ffffffffffffffffffffffffffffffffffffffff1661271b565b156124f0578373ffffffffffffffffffffffffffffffffffffffff1663150b7a026123b06119e3565b8786866040518563ffffffff1660e01b81526004016123d294939291906130d4565b602060405180830381600087803b1580156123ec57600080fd5b505af192505050801561241d57506040513d601f19601f8201168201806040525081019061241a9190612b28565b60015b6124a0573d806000811461244d576040519150601f19603f3d011682016040523d82523d6000602084013e612452565b606091505b50600081511415612498576040517f08c379a000000000000000000000000000000000000000000000000000000000815260040161248f906131a6565b60405180910390fd5b805181602001fd5b63150b7a0260e01b7bffffffffffffffffffffffffffffffffffffffffffffffffffffffff1916817bffffffffffffffffffffffffffffffffffffffffffffffffffffffff1916149150506124f5565b600190505b949350505050565b600073ffffffffffffffffffffffffffffffffffffffff168273ffffffffffffffffffffffffffffffffffffffff16141561256d576040517f08c379a000000000000000000000000000000000000000000000000000000000815260040161256490613306565b60405180910390fd5b61257681611f0b565b156125b6576040517f08c379a00000000000000000000000000000000000000000000000000000000081526004016125ad906131e6565b60405180910390fd5b6125c460008383600161235a565b6125cd81611f0b565b1561260d576040517f08c379a0000000000000000000000000000000000000000000000000000000008152600401612604906131e6565b60405180910390fd5b6001600360008473ffffffffffffffffffffffffffffffffffffffff1673ffffffffffffffffffffffffffffffffffffffff16815260200190815260200160002060008282540192505081905550816002600083815260200190815260200160002060006101000a81548173ffffffffffffffffffffffffffffffffffffffff021916908373ffffffffffffffffffffffffffffffffffffffff160217905550808273ffffffffffffffffffffffffffffffffffffffff16600073ffffffffffffffffffffffffffffffffffffffff167fddf252ad1be2c89b69c2b068fc378daa952ba7f163c4a11628f55a4df523b3ef60405160405180910390a4612717600083836001612360565b5050565b6000808273ffffffffffffffffffffffffffffffffffffffff163b119050919050565b82805461274a906136cb565b90600052602060002090601f01602090048101928261276c57600085556127b3565b82601f1061278557805160ff19168380011785556127b3565b828001600101855582156127b3579182015b828111156127b2578251825591602001919060010190612797565b5b5090506127c091906127c4565b5090565b5b808211156127dd5760008160009055506001016127c5565b5090565b60006127f46127ef84613446565b613421565b90508281526020810184848401111561280c57600080fd5b612817848285613689565b509392505050565b600061283261282d84613477565b613421565b90508281526020810184848401111561284a57600080fd5b612855848285613689565b509392505050565b60008135905061286c81613cb3565b92915050565b60008135905061288181613cca565b92915050565b60008151905061289681613cca565b92915050565b6000813590506128ab81613ce1565b92915050565b6000815190506128c081613ce1565b92915050565b600082601f8301126128d757600080fd5b81356128e78482602086016127e1565b91505092915050565b600082601f83011261290157600080fd5b813561291184826020860161281f565b91505092915050565b60008135905061292981613cf8565b92915050565b60006020828403121561294157600080fd5b600061294f8482850161285d565b91505092915050565b6000806040838503121561296b57600080fd5b60006129798582860161285d565b925050602061298a8582860161285d565b9150509250929050565b6000806000606084860312156129a957600080fd5b60006129b78682870161285d565b93505060206129c88682870161285d565b92505060406129d98682870161291a565b9150509250925092565b600080600080608085870312156129f957600080fd5b6000612a078782880161285d565b9450506020612a188782880161285d565b9350506040612a298782880161291a565b925050606085013567ffffffffffffffff811115612a4657600080fd5b612a52878288016128c6565b91505092959194509250565b60008060408385031215612a7157600080fd5b6000612a7f8582860161285d565b9250506020612a9085828601612872565b9150509250929050565b60008060408385031215612aad57600080fd5b6000612abb8582860161285d565b9250506020612acc8582860161291a565b9150509250929050565b600060208284031215612ae857600080fd5b6000612af684828501612887565b91505092915050565b600060208284031215612b1157600080fd5b6000612b1f8482850161289c565b91505092915050565b600060208284031215612b3a57600080fd5b6000612b48848285016128b1565b91505092915050565b600060208284031215612b6357600080fd5b600082013567ffffffffffffffff811115612b7d57600080fd5b612b89848285016128f0565b91505092915050565b600060208284031215612ba457600080fd5b6000612bb28482850161291a565b91505092915050565b600080600060608486031215612bd057600080fd5b6000612bde8682870161291a565b9350506020612bef8682870161285d565b9250506040612c008682870161291a565b9150509250925092565b60008060408385031215612c1d57600080fd5b6000612c2b8582860161291a565b9250506020612c3c8582860161291a565b9150509250929050565b612c4f81613615565b82525050565b612c5e81613627565b82525050565b6000612c6f826134bd565b612c7981856134d3565b9350612c89818560208601613698565b612c9281613864565b840191505092915050565b6000612ca8826134c8565b612cb281856134e4565b9350612cc2818560208601613698565b612ccb81613864565b840191505092915050565b6000612ce1826134c8565b612ceb81856134f5565b9350612cfb818560208601613698565b80840191505092915050565b60008154612d14816136cb565b612d1e81866134f5565b94506001821660008114612d395760018114612d4a57612d7d565b60ff19831686528186019350612d7d565b612d53856134a8565b60005b83811015612d7557815481890152600182019150602081019050612d56565b838801955050505b50505092915050565b6000612d93602d836134e4565b9150612d9e82613875565b604082019050919050565b6000612db66032836134e4565b9150612dc1826138c4565b604082019050919050565b6000612dd96025836134e4565b9150612de482613913565b604082019050919050565b6000612dfc601c836134e4565b9150612e0782613962565b602082019050919050565b6000612e1f600d836134e4565b9150612e2a8261398b565b602082019050919050565b6000612e426020836134e4565b9150612e4d826139b4565b602082019050919050565b6000612e656024836134e4565b9150612e70826139dd565b604082019050919050565b6000612e886019836134e4565b9150612e9382613a2c565b602082019050919050565b6000612eab6019836134e4565b9150612eb682613a55565b602082019050919050565b6000612ece6013836134e4565b9150612ed982613a7e565b602082019050919050565b6000612ef16029836134e4565b9150612efc82613aa7565b604082019050919050565b6000612f146015836134e4565b9150612f1f82613af6565b602082019050919050565b6000612f376020836134e4565b9150612f4282613b1f565b602082019050919050565b6000612f5a6017836134e4565b9150612f6582613b48565b602082019050919050565b6000612f7d6018836134e4565b9150612f8882613b71565b602082019050919050565b6000612fa06010836134e4565b9150612fab82613b9a565b602082019050919050565b6000612fc36021836134e4565b9150612fce82613bc3565b604082019050919050565b6000612fe66010836134e4565b9150612ff182613c12565b602082019050919050565b6000613009603d836134e4565b915061301482613c3b565b604082019050919050565b600061302c6018836134e4565b915061303782613c8a565b602082019050919050565b61304b8161367f565b82525050565b600061305d8286612d07565b91506130698285612cd6565b91506130758284612cd6565b9150819050949350505050565b60006020820190506130976000830184612c46565b92915050565b60006060820190506130b26000830186612c46565b6130bf6020830185612c46565b6130cc6040830184613042565b949350505050565b60006080820190506130e96000830187612c46565b6130f66020830186612c46565b6131036040830185613042565b81810360608301526131158184612c64565b905095945050505050565b60006040820190506131356000830185612c46565b6131426020830184613042565b9392505050565b600060208201905061315e6000830184612c55565b92915050565b6000602082019050818103600083015261317e8184612c9d565b905092915050565b6000602082019050818103600083015261319f81612d86565b9050919050565b600060208201905081810360008301526131bf81612da9565b9050919050565b600060208201905081810360008301526131df81612dcc565b9050919050565b600060208201905081810360008301526131ff81612def565b9050919050565b6000602082019050818103600083015261321f81612e12565b9050919050565b6000602082019050818103600083015261323f81612e35565b9050919050565b6000602082019050818103600083015261325f81612e58565b9050919050565b6000602082019050818103600083015261327f81612e7b565b9050919050565b6000602082019050818103600083015261329f81612e9e565b9050919050565b600060208201905081810360008301526132bf81612ec1565b9050919050565b600060208201905081810360008301526132df81612ee4565b9050919050565b600060208201905081810360008301526132ff81612f07565b9050919050565b6000602082019050818103600083015261331f81612f2a565b9050919050565b6000602082019050818103600083015261333f81612f4d565b9050919050565b6000602082019050818103600083015261335f81612f70565b9050919050565b6000602082019050818103600083015261337f81612f93565b9050919050565b6000602082019050818103600083015261339f81612fb6565b9050919050565b600060208201905081810360008301526133bf81612fd9565b9050919050565b600060208201905081810360008301526133df81612ffc565b9050919050565b600060208201905081810360008301526133ff8161301f565b9050919050565b600060208201905061341b6000830184613042565b92915050565b600061342b61343c565b905061343782826136fd565b919050565b6000604051905090565b600067ffffffffffffffff82111561346157613460613835565b5b61346a82613864565b9050602081019050919050565b600067ffffffffffffffff82111561349257613491613835565b5b61349b82613864565b9050602081019050919050565b60008190508160005260206000209050919050565b600081519050919050565b600081519050919050565b600082825260208201905092915050565b600082825260208201905092915050565b600081905092915050565b600061350b8261367f565b91506135168361367f565b9250827fffffffffffffffffffffffffffffffffffffffffffffffffffffffffffffffff0382111561354b5761354a6137a8565b5b828201905092915050565b60006135618261367f565b915061356c8361367f565b92508261357c5761357b6137d7565b5b828204905092915050565b60006135928261367f565b915061359d8361367f565b9250817fffffffffffffffffffffffffffffffffffffffffffffffffffffffffffffffff04831182151516156135d6576135d56137a8565b5b828202905092915050565b60006135ec8261367f565b91506135f78361367f565b92508282101561360a576136096137a8565b5b828203905092915050565b60006136208261365f565b9050919050565b60008115159050919050565b60007fffffffff0000000000000000000000000000000000000000000000000000000082169050919050565b600073ffffffffffffffffffffffffffffffffffffffff82169050919050565b6000819050919050565b82818337600083830152505050565b60005b838110156136b657808201518184015260208101905061369b565b838111156136c5576000848401525b50505050565b600060028204905060018216806136e357607f821691505b602082108114156136f7576136f6613806565b5b50919050565b61370682613864565b810181811067ffffffffffffffff8211171561372557613724613835565b5b80604052505050565b60006137398261367f565b91507fffffffffffffffffffffffffffffffffffffffffffffffffffffffffffffffff82141561376c5761376b6137a8565b5b600182019050919050565b60006137828261367f565b915061378d8361367f565b92508261379d5761379c6137d7565b5b828206905092915050565b7f4e487b7100000000000000000000000000000000000000000000000000000000600052601160045260246000fd5b7f4e487b7100000000000000000000000000000000000000000000000000000000600052601260045260246000fd5b7f4e487b7100000000000000000000000000000000000000000000000000000000600052602260045260246000fd5b7f4e487b7100000000000000000000000000000000000000000000000000000000600052604160045260246000fd5b6000601f19601f8301169050919050565b7f4552433732313a2063616c6c6572206973206e6f7420746f6b656e206f776e6560008201527f72206f7220617070726f76656400000000000000000000000000000000000000602082015250565b7f4552433732313a207472616e7366657220746f206e6f6e20455243373231526560008201527f63656976657220696d706c656d656e7465720000000000000000000000000000602082015250565b7f4552433732313a207472616e736665722066726f6d20696e636f72726563742060008201527f6f776e6572000000000000000000000000000000000000000000000000000000602082015250565b7f4552433732313a20746f6b656e20616c7265616479206d696e74656400000000600082015250565b7f496e76616c696420696e64657800000000000000000000000000000000000000600082015250565b7f416d6f756e74206d7573742062652067726561746572207468616e207a65726f600082015250565b7f4552433732313a207472616e7366657220746f20746865207a65726f2061646460008201527f7265737300000000000000000000000000000000000000000000000000000000602082015250565b7f4552433732313a20617070726f766520746f2063616c6c657200000000000000600082015250565b7f4f6e6c79206d616e616765722063616e20776974686472617700000000000000600082015250565b7f466565207472616e73666572206661696c656400000000000000000000000000600082015250565b7f4552433732313a2061646472657373207a65726f206973206e6f74206120766160008201527f6c6964206f776e65720000000000000000000000000000000000000000000000602082015250565b7f546f6b656e207472616e73666572206661696c65640000000000000000000000600082015250565b7f4552433732313a206d696e7420746f20746865207a65726f2061646472657373600082015250565b7f4d6178696d756d20737570706c79206578636565646564000000000000000000600082015250565b7f4552433732313a20696e76616c696420746f6b656e2049440000000000000000600082015250565b7f496e76616c696420746f6b656e20494400000000000000000000000000000000600082015250565b7f4552433732313a20617070726f76616c20746f2063757272656e74206f776e6560008201527f7200000000000000000000000000000000000000000000000000000000000000602082015250565b7f496e76616c69642063617465676f727900000000000000000000000000000000600082015250565b7f4552433732313a20617070726f76652063616c6c6572206973206e6f7420746f60008201527f6b656e206f776e6572206f7220617070726f76656420666f7220616c6c000000602082015250565b7f43617465676f727920737570706c792065786365656465640000000000000000600082015250565b613cbc81613615565b8114613cc757600080fd5b50565b613cd381613627565b8114613cde57600080fd5b50565b613cea81613633565b8114613cf557600080fd5b50565b613d018161367f565b8114613d0c57600080fd5b5056fea26469706673582212206c22aa8312c924cc3c4f48b615f2238ce4f7f5de415c1d5de566e992babec1ce64736f6c63430008010033",
  "linkReferences": {},
  "deployedLinkReferences": {}
}